S00B00006170702E73726563D8
S113000047C2000065C2000063C2000061C2000074
S11300105FC200005DC200005BC2000059C2000064
S113002057C2000055C2000053C2000051C2000074
S113003097C700004DC200004BC2000049C2000037
S113004047C2000045C2000043C2000041C2000094
S11300503FC200003DC200003BC2000039C20000A4
S113006037C200000C94A3180C94F51831C2000098
S11300702FC200002DC200002BC2000029C20000C4
S113008027C2000025C2000023C2000021C20000D4
S11300900C9439190C948B191BC200000C94822403
S11300A017C2000015C2000013C2000011C20000F4
S11300B00FC200000DC200000BC2000009C2000004
S11300C007C2000005C2000003C200000C94CF194F
S11300D00C94211AFDC100000C94651A0C94B71AF3
S11300E0F7C10000BF01BF01BF01F90101021702FE
S11300F0BF01BF01F9010102A4241425142514250C
S11301001425142514251425A42414251425142594
S11301101425142514251425A62414251425142582
S11301201425142514251425142514251425142503
S11301301425142514251425A62414251425142562
S113014014251425142514251425142514251425E3
S113015014251425142514251025142514251425D7
S11301601425142514251425DB24142514251425FD
S113017014251425142514251425142514251425B3
S11301801425142514251425CF24142514251425E9
S11301901425142514251425F32402ED17E00F2E3D
S11301A0F2E0EF2EF8E0FF2EF02D8091D1078823A6
S11301B011F10FB6F8940F92D8011796ED91FC91B6
S11301C01897C085D185CE0102962FD58091C50799
S11301D081508093C5078091D10781508093D107C6
S11301E00F900FBE8B8D9C8D9ED4CE019CD480919C
S11301F0D1078111DECFF7018081823008F0EAD582
S11302000E94B716D2CFCF93DF93CDB7DEB76097F6
S11302100FB6F894DEBF0FBECDBFCE0101969A870C
S11302208987812C912CA12CB12C69847A84E0914A
S11302303A08F0913B088081882309F40FC10780B4
S1130240F085E02D20803180428053800E94930FFE
S1130250CE0101960E9421166B877C878D879E872D
S11302608981811165C08B859C85AD85BE8582158C
S11302709305A405B50508F444C00E947C10E091E0
S11302803A08F0913B080780F085E02DA085B18500
S1130290B88BAF87CD010296C8D4EF85F8898789DA
S11302A082FF21C04685578560897189420D531D9F
S11302B0641D751D720161010B851C852D853E85AC
S11302C0CF010E943115882399F0C82CD92CEA2C2F
S11302D0FB2C00E010E0A201910160E08F85988979
S11302E00E94C31505C08E7FAF85B88957968C933D
S11302F0AF85B8895496ED91FC915597CD01199528
S11303009FC020E0B201A1018B859C85AD85BE858F
S1130310481B590B6A0B7B0B809136089091370868
S11303200E94450B0E947C1081118AC053D588C05D
S11303300E947C1085C0898188230CF481C04E8082
S11303405F80D2011C968D919C911D97892B19F089
S1130350C20102966AD4CE0108960E9421168B012E
S11303609C01E9810E2E000CFF0BEA30F10508F028
S113037067C08827EE58FF4F8F4F0C942627F20151
S113038087898160878BCA80DB80EC80FD8046850D
S11303905785608971894C0D5D1D6E1D7F1DC201DD
S11303A00E943115882309F44BC0D2015496ED9173
S11303B0FC915597C2011995F201878982FF40C0CB
S11303C04A815B816C817D8186859785A089B1890D
S11303D09A01AB01280F391F4A1F5B1FC82CD92C67
S11303E0EA2CFB2C00E010E060E0C2010E94C3157F
S11303F027C0D20157968C9157978E7F57968C932E
S11304001FC0F20187898160878B4A815B816C817F
S11304107D8146875787608B718B400F511F621F08
S1130420731F68017901C2010E94311509C0F201EC
S1130430878981FD03C0C20176D302C08E7F878B7A
S1130440282D392D4A2D5B2D662D772D8091360868
S113045090913708BCD781116ECFE9CE0E94930FDB
S1130460CE0101960E9421166B877C878D879E871B
S1130470898181115DCFE0913808F091390880813C
S113048021E0811120E0282C392C4A2C5B2C3ACF16
S113049011241FBECFEFD1E2DEBFCDBF00E00CBF01
S11304A017E0A0E0B2E0E0ECF7E500E00BBF02C02B
S11304B007900D92AA3AB107D9F72AE0AAEAB7E061
S11304C001C01D92AE34B207E1F703D00C94DE2BC9
S11304D097CDEF92FF920F93EAEBF9E01582148225
S11304E0138212821782168211821082108611865C
S11304F01286138680E00E944A1783E00E941A1B2A
S113050081E00E94EF1D0F2EF2EBEF2EF7E0FF2E9D
S1130510F02D01E020E030E040EC50E06EE672E0C7
S113052088E095E00E94380E0F2EF0EBEF2EF7E0F6
S1130530FF2EF02D20E030E040EC50E066E872E061
S113054086E193E00E94380E0F2EFEEAEF2EF7E0CC
S1130550FF2EF02D20E030E040EC50E066E972E040
S113056082E593E00E94380E0F2EFAEAEF2EF7E0B0
S1130570FF2EF02D03E020E030E040EC50E068EA8C
S113058072E081E594E00E94380E0F2EFCEAEF2E13
S1130590F7E0FF2EF02D01E020E030E040EC50E0E9
S11305A06CEA72E080EE94E00E94380E81E0BCD6E2
S11305B09093B9098093B8090E94791B81112CC0CA
S11305C00E940B2263E373E083E00E9494218FE690
S11305D093E00E948622882361F01F928F9380EE1D
S11305E092E09F938F930E94C0280F900F900F90DA
S11305F00F900E94A122882361F01F928F9387E0BD
S113060093E09F938F930E94C0280F900F900F90B8
S11306100F900E94570FFFCF88EB92E00E94D328DF
S113062081E090E00F91FF90EF900895C9E2D3E04C
S113063068EE73E080E090E00E94F8100E94C3210D
S1130640882351F01F928F93DF93CF930E94C02889
S11306500F900F900F900F9068E273E280E090E0AB
S11306600E94F810E5CF0F93CF93DF93EC014FEF87
S11306705FEFBA018091B8099091B9093DD7D09341
S1130680BF09C093BE0900E020E030E0A90160E0AA
S113069070E08091B8099091B909A6D5DF91CF9106
S11306A00F910895C8E3D3E068EE73E080E090E032
S11306B00E94F8100E94B622882351F01F928F9353
S11306C0DF93CF930E94C0280F900F900F900F904C
S11306D068E273E280E090E00E94F810E5CF0F93A7
S11306E0CF93DF9300D01F92CDB7DEB7813029F0CE
S11306F088E593E00E94D32828C0CE0101960E9489
S1130700C82281111EC04FEF5FEFBA018091B80972
S11307109091B909F1D669817A818B819C810E947B
S1130720D7167093C1096093C00900E020E030E05F
S1130730A90160E070E08091B8099091B90954D59D
S113074004C08FE693E00E94D3280F900F900F907F
S11307500F90DF91CF910F910895EF92FF921F9325
S1130760CF93DF930E943F1E0E946B209F938F9331
S11307708CE793E09F938F930E94C0280E946C1F84
S11307800E946B209F938F938EE893E09F938F93A7
S11307900E94C0288AEC99E00E94511E0E946B209E
S11307A0CAECD9E0DF93CF939F938F9387EA93E0CA
S11307B09F938F930E94C028CE010E946D1E0E94B9
S11307C06B209F938F93DF93CF938CEB93E09F9356
S11307D08F930E94C028AE0161ED73E082EF93E035
S11307E00E944A200E946B209F938F93DF93CF93A4
S11307F081ED93E09F938F9382EF93E09F938F9388
S113080083E094E09F938F930E94C0280E94A01ECF
S11308100E946B209F938F9389E394E09F938F931F
S11308200E94C0288DB79EB782960FB6F8949EBFDB
S11308300FBE8DBF81E00E94611F0E946B209F93B9
S11308408F9388E494E09F938F930E94C0280F9025
S11308500F900F900F90C5E0D0E00F2EF9E6EF2E29
S1130860F4E0FF2EF02D80E00E94A61E182F0E94B7
S11308706B209F938F93DF93CF93FF92EF920E940D
S1130880C0280F900F900F900F900F900F9018307A
S113089011F0219741F7DF91CF911F91FF90EF90D5
S11308A00895CF93DF93CDB7DEB766970FB6F8946C
S11308B0DEBF0FBECDBF81E00E942B1E66E970E053
S11308C080E090E00E94F81080E00E942B1E66E910
S11308D070E080E090E00E94F8100E94E81D3DDF87
S11308E068EC70E080E090E00E94F81087E08A8372
S11308F082E089830F2EFAEBEF2EF9E0FF2EF02D24
S11309000F2EF0E88F2EFEEE9F2EF6E3AF2EB12CC5
S1130910F02D0F2EF9E8CF2EF4E0DF2EF02D4FEF5F
S11309205FEFBA018091B8099091B909E5D5F70153
S113093082818B8380818C83848195819D838E8346
S1130940868197819F8388870E94990FF70100858C
S11309501185228533852B013C01401A510A620A14
S1130960730AA3019201AEE3B0E00E942E27A50111
S113097094010E9404272987BE016F5F7F4F80E0A6
S11309800E94C91E0E946B209F938F93DF92CF9287
S11309900E94C02800E020E030E0A90160E070E09F
S11309A08091B8099091B9091FD460E177E280E0A1
S11309B090E00E94F8100F900F900F900F90AFCF1F
S11309C00AEB19E068EE73E080E090E00E94F81012
S11309D064E680E00E94F32168EE73E080E090E03A
S11309E00E94F8106CE980E00E94F3210E94990FA4
S11309F0F8016087718782879387C5E0D0E060E162
S1130A0077E280E090E00E94F8102197C1F7DACFF6
S1130A100F2EFEE9CF2EF4E0DF2EF02D0F2EF3EB98
S1130A20EF2EF4E0FF2EF02DCAEBD9E068EE73E070
S1130A3080E090E00E94F8100E94911B282F30E083
S1130A402115310569F02330310551F01F928F9340
S1130A50DF92CF920E94C0280F900F900F900F90BA
S1130A6064E670E080E090E00E94F8100E94A61B0B
S1130A70282F30E02115310569F02330310551F07C
S1130A801F928F93FF92EF920E94C0280F900F90B5
S1130A900F900F9064E670E080E090E00E94F81000
S1130AA04FEF5FEFBA018091B8099091B90924D54D
S1130AB00E94B71B0E94D2167B836A830E94CC1BC0
S1130AC00E94D2167983688300E020E030E0A90117
S1130AD060E070E08091B8099091B90985D3A6CF00
S1130AE0E8E0F1E09081907F908390818F70982B63
S1130AF090830895E8E0F1E08081807F8083089509
S1130B00CF93DF93EC010E94930FCE010E946127E3
S1130B10EC010E947C10209711F40E94B816CE01BB
S1130B20DF91CF910895CF93DF93009741F0EC01CB
S1130B300E94930FCE010E94F9270E947C10DF913E
S1130B40CF910895FC010396928381834FEF5FEF69
S1130B50BA0143835483658376839087878392871E
S1130B60818710820895FC01138612860895CF931D
S1130B70DF939C01FB01DC011196CD91DC9112976E
S1130B80D583C4838E819F81978386838E819F8141
S1130B90DC0115967C936E9314977F836E83338761
S1130BA02287F90180818F5F8083DF91CF9108953F
S1130BB00F931F93CF93DF93EB01088119812A814F
S1130BC03B810F3F4FEF14072407340721F4FC0146
S1130BD0A185B28511C0DC01139601C0DF01149612
S1130BE0ED91FC91159740815181628173810417C5
S1130BF015072607370790F71496ED91FC91159782
S1130C00FD83EC83D783C683BF83AE831596DC93C1
S1130C10CE9314979B878A87FC0120812F5F2083C2
S1130C20DF91CF911F910F910895CF93DF93FC0132
S1130C30A285B385C481D581868197819F838E8364
S1130C40C681D781848195819D838C8311968D91F2
S1130C509C911297E817F90731F4868197811296CF
S1130C609C938E931197138612868C9181508C934A
S1130C708C91DF91CF91089531E1FC01308331975C
S1130C8022E220833197A3E3A083319760833197D5
S1130C9070833197108231971082319760E86083B6
S1130CA0319710823197108231971082319762E028
S1130CB06083319763E06083319764E060833197A8
S1130CC065E06083319766E06083319767E0608315
S1130CD0319768E06083319769E06083319760E120
S1130CE0608331973083319732E13083319733E138
S1130CF03083319734E13083319735E13083319754
S1130D0036E13083319737E13083319738E13083EE
S1130D10319739E13083319730E23083319731E2D2
S1130D20308331972083319723E2208331974083A6
S1130D3031975083319726E22083319727E220832D
S1130D40319728E22083319729E22083319720E3E9
S1130D502083319721E3208389970895A89590EC07
S1130D6088E10FB6F894A895809360000FBE909325
S1130D706000A0912E08B0912F08CD91CDBFDD91D8
S1130D80DEBFFF91EF91DF91CF91BF91AF919F9122
S1130D908F917F916F915F914F913F912F911F910F
S1130DA00F91FF90EF90DF90CF90BF90AF909F9006
S1130DB08F907F906F905F904F903F902F901F90F7
S1130DC00F900CBE0F900BBE0F900FBE0F900895A6
S1130DD081E008950F920FB6F8940F920BB60F921C
S1130DE00CB60F921F9211242F923F924F925F9252
S1130DF06F927F928F929F92AF92BF92CF92DF9227
S1130E00EF92FF920F931F932F933F934F935F9310
S1130E106F937F938F939F93AF93BF93CF93DF93FE
S1130E20EF93FF93A0912E08B0912F080DB60D9269
S1130E300EB60D920E941111A0912E08B0912F08A8
S1130E40CD91CDBFDD91DEBFFF91EF91DF91CF91C9
S1130E50BF91AF919F918F917F916F915F914F91CE
S1130E603F912F911F910F91FF90EF90DF90CF90C2
S1130E70BF90AF909F908F907F906F905F904F90B6
S1130E803F902F901F900F900CBE0F900BBE0F90B1
S1130E900FBE0F9008950F920FB6F8940F920BB6F1
S1130EA00F920CB60F921F9211242F923F924F92E1
S1130EB05F926F927F928F929F92AF92BF92CF92E6
S1130EC0DF92EF92FF920F931F932F933F934F93D1
S1130ED05F936F937F938F939F93AF93BF93CF93BE
S1130EE0DF93EF93FF93A0912E08B0912F080DB6D6
S1130EF00D920EB60D9213BE0E94A70F81110E948F
S1130F001111A0912E08B0912F08CD91CDBFDD9184
S1130F10DEBFFF91EF91DF91CF91BF91AF919F9190
S1130F208F917F916F915F914F913F912F911F917D
S1130F300F91FF90EF90DF90CF90BF90AF909F9074
S1130F408F907F906F905F904F903F902F901F9065
S1130F500F900CBE0F900BBE0F900FBE0F90089514
S1130F609ADF18950FB6F8940F92FC01968D0F90A6
S1130F700FBE81E0911180E008950F931F93CF93EA
S1130F80DF93EC01042F1E8D48A141110CC0888110
S1130F909981892B09F042C08C819D810E94F412B1
S1130FA01D821C8242C0011117C050E08A819B81BE
S1130FB00E94862828A18A819B81820F911D9B8390
S1130FC08A832C813D818217930750F1888199810E
S1130FD09B838A8380E029C050E08E819F810E9498
S1130FE0862888A190E09195819591092E813F8171
S1130FF0280F391F3F832E834881598124173507D1
S113100030F42C813D81820F931F9F838E830230A5
S113101049F4112349F0115080E007C080E005C075
S113102080E003C080E001C080E01F5F1E8FDF917D
S1131030CF911F910F910895FC0140A14423A9F081
S113104050E026813781240F351F3783268384811E
S113105095812817390720F08081918197838683B1
S1131060CB01668177810C9486280895EF92FF92D4
S11310700F931F93CF938C010FB6F8940F92FC013A
S1131080C2A11C16ACF48389811106C011C0F801F9
S11310908389811105C00CC07801F3E1EF0EF11CC6
S11310A0C7010E94C71181110E946F12C15079F7C4
S11310B08FEFF80182A30F900FBE0FB6F8940F9232
S11310C0C1A11C16ACF48085811106C011C0F801C1
S11310D08085811105C00CC07801F8E0EF0EF11C89
S11310E0C7010E94C71181110E946F12C15079F784
S11310F08FEFF80181A30F900FBECF911F910F9135
S1131100FF90EF900895CF93DF93EC010FB6F8941E
S11311100F92E881F9818F8D28A190E030E0829FC1
S1131120A001839F500D929F500D11244E0F5F1FFD
S11311305D834C831E8EFB83EA830197829FA0010B
S1131140839F500D929F500D1124CF01840F951F42
S11311509F838E838FEF89A38AA361110BC0888537
S1131160882371F0CE0108960E94C711882341F0AC
S113117031DE06C0CE010896E5DCCE014396E2DC02
S11311800F900FBE81E0DF91CF910895FF920F93EE
S11311901F93CF93DF93082F162FF42E6623B9F0F5
S11311A0869FC00111248596ABDCEC01009741F4C5
S11311B014C00F8F18A361E0CE01A5DFFCA20DC0FF
S11311C0859699838883F5CFD983C883F2CF85E246
S11311D090E096DCEC01892BB9F7CE01DF91CF9139
S11311E01F910F91FF9008959F92AF92BF92CF925B
S11311F0DF92EF92FF920F931F93CF93DF93CDB7BC
S1131200DEB729970FB6F894DEBF0FBECDBF7C01C1
S11312105B012E833F834887598710E09924939478
S11312206C0188E0C80ED11C0FB6F8940F92F70138
S1131230968D878D981710F00230B1F4402FB501C8
S1131240C7019BDEF7019389992341F0C7014396B7
S11312500E94C711882321F0BDDD02C08111BADDCF
S11312600F900FBE81E04EC08E819F81A885B98505
S1131270892B8A2B8B2B21F40F900FBE80E042C068
S1131280111105C0CE0101960E940912192D0F906B
S11312900FBE49D60FB6F8940F92F70181A18F3F84
S11312A009F411A2F70182A18F3F09F412A20F9051
S11312B00FBEBE016A5F7F4FCE0101960E941A12D3
S11312C081111CC00FB6F8940F92F701968D878D8B
S11312D00F900FBE98130EC04E815F81688579858B
S11312E0C6010E949011C701C1DE06D781119CCFAF
S11312F071DD9ACFC701BADEFFD696CFC701B6DE3D
S1131300FBD680E029960FB6F894DEBF0FBECDBFA2
S1131310DF91CF911F910F91FF90EF90DF90CF90CD
S1131320BF90AF909F9008950F93CF93DF93482F72
S113133060E081E02BDFEC01009761F01D821C82EC
S1131340198218821E8200E020E030E0A90160E0EA
S113135070E04ADFCE01DF91CF910F910895EF92B3
S1131360FF920F931F93CF93DF938A01FC01568D55
S1131370378D531710F02230E1F4422F7801EC013D
S11313801AA1FBDD1F3F79F48B898823A1F0CE01DC
S11313904396FDD7882389F0E114F10481F081E0BC
S11313A0F70180830DC0FF24F394F10EFAA281E0CB
S11313B007C080E005C081E003C081E001C081E096
S11313C0DF91CF911F910F91FF90EF9008959F921D
S11313D0AF92BF92CF92DF92EF92FF920F931F933F
S11313E0CF93DF93CDB7DEB729970FB6F894DEBF5E
S11313F00FBECDBF8C015B012E833F834887598785
S1131400E12C992493946C0183E1C80ED11C0FB68E
S1131410F8940F92F801F68CFF2091F0B501C80101
S11314200BDEFA94F801F68E8085882329F0C80132
S11314300896ADD78111CEDC0F900FBE81E04AC073
S11314408E819F81A885B985892B8A2B8B2B21F4CA
S11314500F900FBE80E03EC0E11004C0CE010196A3
S1131460D8D7E92C0F900FBE5ED50FB6F8940F9223
S1131470F80181A18F3F09F411A2F80182A18F3FE5
S113148009F412A20F900FBEBE016A5F7F4FCE0116
S11314900196D0D7811115C0C80164DD882369F095
S11314A04E815F8168857985C6013AD7C801DEDD42
S11314B023D68111ACCF8EDCAACFC801D7DD1CD6D0
S11314C0A6CFC801D3DD18D6C8014CDD882309F4A2
S11314D09ECF80E029960FB6F894DEBF0FBECDBF35
S11314E0DF91CF911F910F91FF90EF90DF90CF90FC
S11314F0BF90AF909F900895BF92CF92DF92EF92EA
S1131500FF920F931F93CF93DF93CDB7DEB7299745
S11315100FB6F894DEBF0FBECDBF8C014E835F8340
S113152068877987B12CD12CCC24C3947C0183E1C6
S1131530E80EF11C0FB6F8940F92D8015E968C91C8
S11315405E978823D9F081505E968C935E978D9137
S11315509C91892B29F40E948013F801958384833C
S1131560D80118968C91882329F0C80108960FD7C2
S1131570811130DC0F900FBE81E077C08E819F8196
S1131580A885B985892B8A2B8B2B21F40F900FBE4C
S113159080E06BC0D11004C0CE0101963AD7DC2C98
S11315A00F900FBEC0D40FB6F8940F92F80181A12A
S11315B08F3F09F411A2D80192968C9192978F3F94
S11315C011F492961C920F900FBEBE016A5F7F4F7A
S11315D0CE0101962FD7811123C0C801C3DC882313
S11315E0D9F0F80180819181892B49F40FB6F894E0
S11315F00F92848195818AD7B82E0F900FBE4E81A9
S11316005F8168857985C7018BD6C8012FDD74D5C4
S1131610811190CFDFDB8ECFC80128DD6DD58ACF55
S1131620C80124DD69D5C8019DDC882309F482CF73
S1131630BB20D1F00FB6F8940F92F8018389882368
S113164039F0028CF38DE02D808164E0681B01C0C9
S113165060E0D80114968D919C9115970E943413E3
S11316600F900FBE80E001C080E029960FB6F89479
S1131670DEBF0FBECDBFDF91CF911F910F91FF90C1
S1131680EF90DF90CF90BF900895CF93DF93EC015C
S11316900FB6F8940F9289A18F3F09F419A28AA179
S11316A08F3F09F41AA20F900FBE8E8D811103C0D3
S11316B0CE0143964CD6CE01D9DCDF91CF9108956B
S11316C0FC014481558122813381240F351F80819F
S11316D09181B901681B790BCB016417750710F070
S11316E0841B950B0895AF92BF92CF92DF92EF9235
S11316F0FF920F931F93CF93DF936C015B017A01E9
S1131700FC01C281D381048115810C1B1D0B401780
S1131710510708F48A01F60184859585A801B5016D
S11317208C0F9D1F0E9486280E151F0558F4A701D3
S1131730401B510BB501600F711FF601848595851F
S11317400E948628CE018E0D9F1DF60124813581CD
S11317508217930710F0821B930BF6019383828305
S1131760C701DF91CF911F910F91FF90EF90DF9010
S1131770CF90BF90AF900895CF92DF92EF92FF92F7
S11317800F931F93CF93DF931F921F92CDB7DEB7B2
S11317905A83498321153105C9F06B017C01FC0191
S11317A0868580FD08C0CA012417350708F4C901DD
S11317B09A83898311C02017310758F042E050E022
S11317C0BE016F5F7F4FC7018EDF06C080E090E0EF
S11317D008C080E090E005C049815A81B601C70184
S11317E082DF0F900F90DF91CF911F910F91FF90A7
S11317F0EF90DF90CF900895AF92BF92CF92DF9297
S1131800EF92FF920F931F93CF93DF937C015B01C1
S1131810E9014217530708F4EA01209779F1F70127
S113182000811181C480D580C01AD10ACC15DD0590
S113183008F46E01F70164857585600F711FA601B8
S1131840C5010E948628CC16DD0658F4AE014C1959
S11318505D09F70164857585C5018C0D9D1D0E9488
S113186086280C0F1D1FF70184819581081719071D
S113187010F0081B190BF70111830083CE01DF91CF
S1131880CF911F910F91FF90EF90DF90CF90BF9079
S1131890AF900895EF92FF921F93CF93DF93EB01E4
S11318A011E0413009F010E0209711F4C1E0D0E0DC
S11318B07C012FEFE21AF20A419622D9009781F0B7
S11318C020E1FC0111922A95E9F79C01205F3F4F2A
S11318D0FC0135872487F582E482D783C683168783
S11318E0DF91CF911F91FF90EF900895CF93DF93F5
S11318F0FC0127850FB6F8940F9280859185892B7A
S1131900D1F482859385892BC1F4868546815781DC
S113191064817581A485B58590E1EF0119929A954A
S1131920E9F7B587A48775836483578346838687DD
S1131930278781E003C080E001C080E00F900FBEE4
S1131940DF91CF910895FC012481358180819181BB
S113195042815381820F931F0197841B950B821739
S1131960930710F0821B930B0895AF92BF92CF920E
S1131970DF92EF92FF920F931F93CF93DF93EC01CB
S11319805B016A0179018E8580FF04C08A010E5FC4
S11319901F4F01C08A01CE01D6DF9C01A601B5010B
S11319A0CE01EADE6C01892BB1F0CE0189DE2E81F5
S11319B03F818217930778F088859985892B59F0A0
S11319C08885998500E010E020E040E050E0BA010D
S11319D0ABD719861886C601DF91CF911F910F915D
S11319E0FF90EF90DF90CF90BF90AF9008954F920B
S11319F05F926F927F928F929F92AF92BF92CF929B
S1131A00DF92EF92FF920F931F93CF93DF931F9276
S1131A101F92CDB7DEB75C012B013A016801790151
S1131A20FC01868580FD03C0812C912C04C0689440
S1131A30882481F8912CC114D104E104F10429F122
S1131A400FB6F8940F92C5013BDE8C0188169906F7
S1131A5038F080E090E0F1D746D5F5019187808792
S1131A600F900FBE80169106B0F000E010E020E069
S1131A7030E0A90160E070E0CB0154D6F501118695
S1131A801086C5011DDE8C0103C0C50119DE8C0161
S1131A9080169106B8F581149104C1F0F501E08037
S1131AA0F1809801A401BE016F5F7F4FC501A4DEE0
S1131AB089819A81081919096816790630F4F501A3
S1131AC0F182E082612C712C01C03C019801A301D8
S1131AD0B201C50191DE7C01892BB1F024D2F5015C
S1131AE082859385892B61F08285938500E010E0DF
S1131AF020E040E050E0BA019FD6F501138612863B
S1131B00FBD202C0E12CF12CC7010F900F90DF91A2
S1131B10CF911F910F91FF90EF90DF90CF90BF90E6
S1131B20AF909F908F907F906F905F904F900895AB
S1131B30E091EA07F091EB07808181110CC08FEFEF
S1131B409FEFDC018093B7079093B807A093B90780
S1131B50B093BA070895E091EA07F091EB07078084
S1131B60F085E02D0084F185E02D82819381A481AC
S1131B70B5818093B7079093B807A093B907B09342
S1131B80BA0708958F929F92AF92BF92CF92DF923D
S1131B90EF92FF92CF936B017C01C42F8090C10719
S1131BA09090C207A090C307B090C40780912E08FC
S1131BB090912F08029639D88FEFC816D806E806F8
S1131BC0F80669F4CC2359F060912E0870912F081F
S1131BD06E5F7F4F86EC97E00E94B7053FC0C80C4C
S1131BE0D91CEA1CFB1CE0912E08F0912F08C2823C
S1131BF0D382E482F582C814D904EA04FB0468F4AD
S1131C0060912E0870912F088091E8079091E90760
S1131C106E5F7F4F0E94D80521C060912E0870919D
S1131C202F088091EA079091EB076E5F7F4F0E9427
S1131C30D8058091B7079091B807A091B907B091E2
S1131C40BA07C816D906EA06FB0640F4C092B707DD
S1131C50D092B807E092B907F092BA07CF91FF90FB
S1131C60EF90DF90CF90BF90AF909F908F900895AA
S1131C704F925F926F927F928F929F92AF92BF9298
S1131C80CF92DF92EF92FF920F93CF93DF934C01A9
S1131C906B015A012901CA010E9480053C01892B6C
S1131CA009F4F4C080E390E00E948005EC01892BE4
S1131CB099F07C8E6B8EA50165EA70E0C3010E94E9
S1131CC08F2821E0A21AB1088B8D9C8DA80EB91E15
S1131CD0C114D10429F420C0C3010E949305D6C0C5
S1131CE0D6018C918D8F8C918823A1F0AE01425E38
S1131CF05F4FF6013196B8E0CB0ED11CCF01219194
S1131D00DA012D93AD01DC018C91882319F0EC15D7
S1131D10FD05A1F71CA201C01D8E043008F003E0EC
S1131D200A8F0FA318A66E01B2E0CB0ED11CC60118
S1131D300E94B305CE010E960E94B305DB87CA87C5
S1131D4084E090E0A0E0B0E0801B9109A109B10912
S1131D508E879F87A88BB98BDF8BCE8B1AA619A68B
S1131D601BA61CA61DA61EA61FA6A201B401C50182
S1131D700E943C0699838883E114F10419F0F70169
S1131D80D183C0830FB6F8940F928091C5078F5FFB
S1131D908093C50780912E0890912F08892BD1F547
S1131DA0D0932F08C0932E088091C507813009F085
S1131DB041C082E098E00E94A2058DE098E00E9474
S1131DC0A20588E198E00E94A20583E298E00E94BF
S1131DD0A20587EF97E00E94A2058CEE97E00E948F
S1131DE0A2058DED97E00E94A20582ED97E00E9486
S1131DF0A20586EC97E00E94A20587EF97E09093F6
S1131E00EB078093EA078CEE97E09093E9078093C1
S1131E10E80710C08091BF0781110CC0E0912E0823
S1131E20F0912F08928D8A8D891720F0D0932F0876
S1131E30C0932E088091BB078F5F8093BB078DA34F
S1131E408A8D9091C007981710F48093C007FBE027
S1131E508F9FC0011124B6018E5F974F0E94B70572
S1131E600F900FBE8091BF07882361F0E0912E0888
S1131E70F0912F08928D8A8D981730F40E94EA060B
S1131E8081E005C081E003C081E001C08FEFDF91F4
S1131E90CF910F91FF90EF90DF90CF90BF90AF90D4
S1131EA09F908F907F906F905F904F900895EF92E6
S1131EB0FF920F930F2EF5EBEF2EF7E0FF2EF02D90
S1131EC000E020E030E040EC50E068EC74E08DECA1
S1131ED090E0CEDE813019F536D6813001F5F894E4
S1131EE08FEF9FEFDC018093B7079093B807A0931F
S1131EF0B907B093BA0781E08093BF071092C10776
S1131F001092C2071092C3071092C407E0912E08E2
S1131F10F0912F0881A50E9470050E94AE060F91D2
S1131F20FF90EF9008958091B4078F5F8093B4077A
S1131F3008950FB6F8940F926091C1077091C2078B
S1131F408091C3079091C4070F900FBE08959F928C
S1131F50AF92BF92CF92DF92EF92FF920F931F93B3
S1131F60CF93DF938091B4078111ADC0C090C107B6
S1131F70D090C207E090C307F090C4078FEFC81A4F
S1131F80D80AE80AF80AC092C107D092C207E092C0
S1131F90C307F092C407C114D104E104F104B1F4FD
S1131FA08091EA079091EB072091E8073091E907C7
S1131FB03093EB072093EA079093E9078093E807AF
S1131FC08091BC078F5F8093BC07B2DD8091B70717
S1131FD09091B807A091B907B091BA07C816D9066D
S1131FE0EA06FB0610F4B12C5DC0B12C0F2EFBE009
S1131FF0AF2EF02D99249394E091EA07F091EB072A
S1132000808181110CC08FEF9FEFDC018093B707B3
S11320109093B807A093B907B093BA0743C0E0916F
S1132020EA07F091EB070780F085E02DC085D185A4
S11320308A819B81AC81BD81C816D906EA06FB065C
S113204048F48093B7079093B807A093B907B09367
S1132050BA0728C08E010E5F1F4FC8010E941506E3
S1132060888D998D892B21F0CE010E960E9415063C
S11320708A8D9091C007981710F48093C007A89E8A
S1132080C0011124B8018E5F974F0E94B705E091FB
S11320902E08F0912F089A8D828D981708F4ACCFF2
S11320A0B92CAACFE0912E08F0912F08E28D8BE095
S11320B0E89FF0011124EE5FF74F8081823048F0F1
S11320C0BB24B39406C08091BE078F5F8093BE0784
S11320D0B12C8091BD07882311F0BB24B3948B2DC0
S11320E0DF91CF911F910F91FF90EF90DF90CF90F0
S11320F0BF90AF909F900895CF92DF92EF92FF929E
S11321000F931F93CF93DF930FB6F8940F928091A0
S1132110B40781508093B4078091B40781115AC0E9
S11321208091C50781112CC058C0D7011796ED9135
S1132130FC911897C085D185CE010E960E94150694
S11321408E010E5F1F4FC8010E9415068A8D909163
S1132150C007981710F48093C007D89EC0011124BB
S1132160B8018E5F974F0E94B705E0912E08F09159
S11321702F089A8D828D981788F0C092BD070EC0E3
S1132180C0E0D0E00F2EFDEDEF2EF7E0FF2EF02D96
S11321900F2EFBE0DF2EF02DCC24C394F7018081B9
S11321A08111C3CFCD2B09F0C3DCC091BE07CC2372
S11321B049F0D1E0CCDE8111D093BD07C150D1F7F5
S11321C01092BE078091BD07882331F00E94EA0671
S11321D081E003C080E001C080E00F900FBEDF917A
S11321E0CF911F910F91FF90EF90DF90CF900895C2
S11321F0CF92DF92EF92FF926B017C01672B682BE9
S1132200692B41F090DE40E0C701B601BBDC74DF0E
S1132210811102C00E94EA06FF90EF90DF90CF90F8
S113222008958091B407882321F081E08093BD074D
S113223008951092BD07E0912E08F0912F0881A512
S11322400E947A05A0912E08B0912F08E0912E08E3
S1132250F0912F082D913C91838D948D82179307D3
S113226058F060912E0870912F0880912E0890915B
S11322702F08635E7F4F89D58091C007282F30E0F7
S11322809BE0899FF0011124EE5FF74F908191113B
S11322900EC04BE08150282F30E0429FF001439F55
S11322A0F00D1124EE5FF74F9081992399F39BE091
S11322B0929FA001939F500D1124DA01AE5FB74F96
S11322C01196ED91FC9112970480F581E02D129600
S11322D0FC93EE9311974B5F574FE417F50729F4DE
S11322E044815581FD01528341839BE0929FF0011B
S11322F0939FF00D1124EE5FF74F0180F281E02DE2
S11323002085318530932F0820932E088093C007B1
S1132310E0912E08F0912F0881A50C947005089582
S1132320CF92DF92EF92FF926A017B0160912E08B7
S113233070912F08625F7F4F0E94D80541E0C7016A
S1132340B60120DCFF90EF90DF90CF900895CF92FC
S1132350DF92EF92FF92CF936A017B01C22F6091CB
S11323602E0870912F08625F7F4F0E94B705CC231F
S113237021F0CC24CA94DC2C76014C2FC701B60181
S113238001DCCF91FF90EF90DF90CF9008950F93F1
S11323901F93CF93DF93DC011796ED91FC9118976F
S11323A0C085D1858E01025F1F4FC8010E941506AA
S11323B08091B407811116C00C501109C8010E9404
S11323C015068A8D9091C007981710F48093C00762
S11323D0BBE08B9FC0011124B8018E5F974F0E9410
S11323E0B70505C0B8018DED97E00E94B705E091EF
S11323F02E08F0912F089A8D828D891720F481E0A0
S11324008093BD0701C080E0DF91CF911F910F91B0
S113241008952091BC07FC0120834091C10750918D
S1132420C2076091C3077091C407418352836383D9
S113243074830895CF92DF92EF92FF920F931F93CC
S1132440CF93DF93FB010FB6F8940F924091C1072D
S11324505091C2076091C3077091C4070081118134
S1132460228133810F3FAFEF1A072A073A0749F158
S1132470EC01C980DA80EB80FC80A091BC07B881B4
S1132480BA1729F04C155D056E057F05E0F44C196B
S11324905D096E097F09401751076207730758F4F5
S11324A0041B150B260B370B008311832283338304
S11324B0B0DF80E009C0108211821282138281E0B1
S11324C003C080E001C081E00F900FBEDF91CF9187
S11324D01F910F91FF90EF90DF90CF90089581E0CE
S11324E08093BD07089580912E0890912F08089538
S11324F08091BF07882331F08091B407882321F0AD
S113250080E0089581E0089582E008950F931F9379
S1132510CF93DF93FC01892B09F460C0828DA091D5
S11325202E08B0912F085A969C91891708F04AC03A
S11325304685578560897189772394F0A0912E0888
S1132540B0912F085A969C9144E050E060E070E00E
S1132550491B51096109710946875787608B718B43
S11325602BE0829FC00111248E5F974F248535850F
S113257028173907F1F48F01EF012296CE010E944A
S11325801506E0912E08F0912F08828DF801828FB4
S11325909091C007981710F48093C007FBE08F9FB9
S11325A0C0011124BE018E5F974F0E94B70581E0E0
S11325B016C0A0912E08B0912F085A968C91828F44
S11325C081E00DC0A0912E08B0912F0881E027A1D1
S11325D05A969C91291718F080E001C080E0DF91A1
S11325E0CF911F910F9108950F931F93CF93DF9372
S11325F0FC01892B79F180A5815080A7228D97A1B8
S1132600291751F181112AC0EF018F010E5F1F4F6D
S1132610C8010E9415068FA18A8F44E050E060E053
S113262070E0481B5109610971094E875F87688B07
S1132630798B9091C007981710F48093C0072BE012
S1132640829FC0011124B8018E5F974F0E94B70585
S113265081E005C080E003C080E001C080E0DF913C
S1132660CF911F910F9108950F931F93CF93DF93F1
S1132670FC01892B09F43FC087A1861708F4862F33
S1132680928D9817C1F120A52130A9F5828F468536
S1132690578560897189772364F044E050E060E0F5
S11326A070E0481B51096109710946875787608B9F
S11326B0718B2BE0929FC00111248E5F974F24856C
S11326C0358528173907B9F4EF018F010E5F1F4FC5
S11326D0C8010E9415068A8D9091C007981710F4BE
S11326E08093C0072BE0829FC0011124B8018E5F44
S11326F0974F0E94B705DF91CF911F910F910895D5
S113270080912E0890912F08892B39F0E0912E08A2
S1132710F0912F0880A58F5F80A780912E0890915B
S11327202F0808954F925F926F927F928F929F929B
S1132730AF92BF92CF92DF92EF92FF920F931F93CB
S113274049015A010FB6F8940F92E0912E08F091C6
S11327502F0827A5223039F1E0912E08F0912F0897
S113276043A454A465A476A4DC01CB018095909580
S1132770A095B09584219521A621B72183A794A77C
S1132780A5A7B6A7E0912E08F0912F0881E087A7AE
S1132790C114D104E104F10431F041E0C701B601F0
S11327A0F1D90E94EA060F900FBE0FB6F8940F926B
S11327B00115110569F0E0912E08F0912F0883A509
S11327C094A5A5A5B6A5F80180839183A283B383BC
S11327D0E0912E08F0912F0887A58230B1F4E091A2
S11327E02E08F0912F0883A594A5A5A5B6A58094DD
S11327F09094A094B09488229922AA22BB2283A602
S113280094A6A5A6B6A681E001C080E0E0912E08BA
S1132810F0912F0817A60F900FBE1F910F91FF90F4
S1132820EF90DF90CF90BF90AF909F908F907F906C
S11328306F905F904F9008950F931F93CF93DF9302
S1132840FC010FB6F8940F920115110549F083A508
S113285094A5A5A5B6A5E80188839983AA83BB831B
S113286087A592E097A72230B1F018F4213031F017
S11328702AC02330E9F0243001F125C003A514A5B2
S113288025A536A5402B512B622B732B43A754A7A8
S113289065A776A718C043A554A565A576A54F5F7F
S11328A05F4F6F4F7F4F43A754A765A776A70BC011
S11328B043A754A765A776A706C0823049F143A76A
S11328C054A765A776A7813029F5EF018F010E5F24
S11328D01F4FC8010E9415068A8D9091C007981752
S11328E010F48093C0072BE0829FC0011124B8012B
S11328F08E5F974F0E94B705E0912E08F0912F0844
S11329009A8D828D891740F40E94EA0681E005C001
S113291080E003C081E001C081E00F900FBEDF9131
S1132920CF911F910F910895EF92FF920F931F93F0
S1132930CF93DF93FC010115110549F083A594A5FC
S1132940A5A5B6A5E80188839983AA83BB8387A537
S113295092E097A72230B1F018F4213031F02AC068
S11329602330E9F0243001F125C003A514A525A5E1
S113297036A5402B512B622B732B43A754A765A775
S113298076A718C043A554A565A576A54F5F5F4FEC
S11329906F4F7F4F43A754A765A776A70BC043A7E4
S11329A054A765A776A706C08230D9F143A754A7D8
S11329B065A776A78130B9F5EF018091B40781113D
S11329C017C08F010E5F1F4FC8010E9415068A8D24
S11329D09091C007981710F48093C007EBE08E9F86
S11329E0C0011124B8018E5F974F0E94B70507C03C
S11329F0BF01625F7F4F8DED97E00E94B705E091C4
S1132A002E08F0912F089A8D828D891770F4E114A5
S1132A10F10419F081E0E701888381E08093BD0728
S1132A2005C080E003C081E001C081E0DF91CF9167
S1132A301F910F91FF90EF900895009721F48091DA
S1132A402E0890912F080FB6F8940F92FC0127A539
S1132A50223019F417A681E001C080E00F900FBE68
S1132A600895CF92DF92EF92FF920F931F93FC0190
S1132A70428353836483758393878287041715077E
S1132A8026073707C0F00C191D092E093F09868552
S1132A909785A089B189081719072A073B0700F50C
S1132AA0BF016E5F7F4F80913808909139080E9472
S1132AB0D80580E018C00C151D052E053F0528F427
S1132AC04C155D056E057F0568F4BF016E5F7F4F91
S1132AD080913A0890913B080E94D80580E003C099
S1132AE081E001C081E01F910F91FF90EF90DF9092
S1132AF0CF9008950FB6F8940F9280913608909174
S1132B003708892BE9F487E498E00E94A2058CE356
S1132B1098E00E94A20587E498E090933B08809394
S1132B203A088CE398E0909339088093380840E0A1
S1132B3067E08AE00E94C6089093370880933608BD
S1132B400F900FBE0895EF92FF920F93D3DF809101
S1132B50360890913708892B89F00F2EF4E3EF2E75
S1132B60F8E0FF2EF02D06E020E030E045E550E0EF
S1132B706DEC74E083E091E07BD801C080E00F91BC
S1132B80FF90EF9008958F929F92AF92BF92CF9251
S1132B90DF92EF92FF920F931F93CF93DF93CDB702
S1132BA0DEB727970FB6F894DEBF0FBECDBFE09116
S1132BB03608F0913708309781F169832A833B8383
S1132BC04C835D839F838E836630F4F491DC823082
S1132BD069F400E0A7019601BE016F5F7F4F809109
S1132BE03608909137080E94F40818C000E020E0ED
S1132BF030E0A901BE016F5F7F4F8091360890914C
S1132C0037080E94F4080AC020E0A801BE016F5FE3
S1132C107F4FCF010E94AF0901C080E027960FB615
S1132C20F894DEBF0FBECDBFDF91CF911F910F91FE
S1132C30FF90EF90DF90CF90BF90AF909F908F90D8
S1132C4008952F923F924F925F926F927F928F924C
S1132C509F92AF92BF92CF92DF92EF92FF920F9327
S1132C601F93CF93DF931C0164D92B013C01809106
S1132C70300890913108A0913208B0913308481679
S1132C8059066A067B0608F053C03BC00780F085EE
S1132C90E02D80809180A280B380C085D1858E0193
S1132CA00E5F1F4FC8010E941506EC89FD89CE01F5
S1132CB019958F8982FF25C08E859F85A889B9893A
S1132CC0880D991DAA1DBB1D88169906AA06BB0668
S1132CD070F48A839B83AC83BD83DB87CA87B80186
S1132CE080913A0890913B080E94D8050AC0C12CF3
S1132CF0D12C760100E010E0A501940160E0CE0142
S1132D0042DFE0913A08F0913B0880818111BECF07
S1132D10809138089091390890933B0880933A0841
S1132D20F0933908E093380881E0F101808302C010
S1132D30F1011082409230085092310860923208BA
S1132D4070923308C301B201DF91CF911F910F91AB
S1132D50FF90EF90DF90CF90BF90AF909F908F90B7
S1132D607F906F905F904F903F902F9008950895BB
S1132D70279A2F9A2FEF80E792E0215080409040CD
S1132D80E1F700C000001F9AF5CF279A2F9A2FEF82
S1132D9087EA91E6215080409040E1F700C00000AE
S1132DA01F9AF5CF04D06894B11150C0089533D060
S1132DB088F09F5790F0B92F9927B751A0F0D1F020
S1132DC0660F771F881F991F1AF0BA95C9F712C0AA
S1132DD0B13081F03AD0B1E0089537C0672F782F31
S1132DE08827B85F39F0B93FCCF386957795679516
S1132DF0B395D9F73EF490958095709561957F4F82
S1132E008F4F9F4F089557FD9058440F551F59F009
S1132E105F3F71F04795880F97FB991F61F09F3FC3
S1132E2079F087950895121613061406551FF2CFEC
S1132E304695F1DF08C0161617061806991FF1CF3C
S1132E4086957105610508940895E894BB27662763
S1132E507727CB0197F90895CF93DF931F92CDB7CE
S1132E60DEB7BE016F5F7F4F809152089091530887
S1132E704ED18111F6CF898190E00F90DF91CF91EF
S1132E800895682F8091520890915308CBD080E028
S1132E9090E008958F929F92AF92CF92EF920F930A
S1132EA0812C912C6894AA24A7F86894CC24C7F8A0
S1132EB0E12C00E023E040E051EE60E070E013D04C
S1132EC09093530880935208E8E4FAE086E092E095
S1132ED091838083938382830F91EF90CF90AF90FF
S1132EE09F908F9008952F923F924F925F926F928E
S1132EF07F928F929F92AF92CF92EF92FF920F9315
S1132F001F93CF93DF93CDB7DEB7F82E2A013B0191
S1132F1088E090E00E9461278C018F2D90E0880F5B
S1132F20991FFC01EC5AF74F11830083FC01EC5EFE
S1132F30FD4F80819181D8018D939C936C2D70E01D
S1132F4084E090E00E9447271C0161E070E086E085
S1132F5090E00E9447277C014C2DB1014CD3F8012D
S1132F60F582E4826A2D70E084E090E00E944727B5
S1132F701C0161E070E086E090E00E9447277C013C
S1132F804A2DB10138D3D8011396FC92EE921297D0
S1132F9017969C928E921697FFB6F894ED91FC9139
S1132FA0119736978081826080838D909C90C301B5
S1132FB0B2010E94112620E030E040E051E40E947A
S1132FC07A269B01AC0160E074E284E79BE40E94F2
S1132FD0A62520E030E040E85FE30E943F25E7DEDD
S1132FE0F40132976083D801ED91FC9111973597E4
S1132FF088E98083ED91FC91349786E08083FFBE5D
S1133000C801DF91CF911F910F91FF90EF90CF9066
S1133010AF909F908F907F906F905F904F903F9074
S11330202F900895CF93DF93EC01EA81FB81938184
S113303082812581981B922384819817A1F0938122
S113304026952923A081B181A20FB11D6C939F5FA6
S1133050258192239383E881F98135978081806269
S1133060808380E001C082E0DF91CF910895EF92E8
S1133070FF920F931F93CF93DF937C01DC01129691
S1133080ED91FC91139793818281981B85819823FC
S11330908481891B861798F1662341F1842F952F2B
S11330A0DC016150462F50E04F5F5F4F480F591FBE
S11330B0E701EA81FB81938182812581981B922318
S11330C08481981779F08C919381269529236081C6
S11330D071818B01020F111DE80188839F5F858137
S11330E0982393831196A417B50711F7D701ED918F
S11330F0FC91359780818062808380E001C082E00A
S1133100DF91CF911F910F91FF90EF900895DC0113
S11331101496ED91FC91159793818281981789F00B
S11331209281858186958923A081B181A80FB11DE3
S11331308C91DB018C939F5F85819823928380E03F
S1133140089583E008951F920F920FB60F921124F1
S11331500BB60F922F933F934F935F936F937F938D
S11331608F939F93AF93BF93CF93DF93EF93FF938B
S1133170A0915408B0915508109711F16091C600C0
S11331801496ED91FC911597938182812581981B6A
S113319092238481981761F0838126952823C08126
S11331A0D181C20FD11D68838F5F95818923838369
S11331B01696ED91FC911797309711F0CD01199562
S11331C0FF91EF91DF91CF91BF91AF919F918F913B
S11331D07F916F915F914F913F912F910F900BBE13
S11331E00F900FBE0F901F9018951F920F920FB65D
S11331F00F9211240BB60F922F938F939F93AF933B
S1133200BF93EF93FF93E0915408F09155083097E2
S1133210B9F00280F381E02D938182819817B1F097
S113322092818581282F26952923A081B181A20F1F
S1133230B11D2C919F5F892382832093C6000BC00C
S1133240E1ECF0E080818F7D808305C0E1ECF0E06B
S113325080818F7D8083FF91EF91BF91AF919F918A
S11332608F912F910F900BBE0F900FBE0F901F9058
S113327018951F920F920FB60F9211240BB60F924E
S11332802F933F934F935F936F937F938F939F936A
S1133290AF93BF93CF93DF93EF93FF93A09156081F
S11332A0B0915708109711F16091CE001496ED91EA
S11332B0FC911597938182812581981B92238481A7
S11332C0981761F0838126952823C081D181C20F8C
S11332D0D11D68838F5F9581892383831696ED9131
S11332E0FC911797309711F0CD011995FF91EF914B
S11332F0DF91CF91BF91AF919F918F917F916F910A
S11333005F914F913F912F910F900BBE0F900FBE85
S11333100F901F9018951F920F920FB60F921124C1
S11333200BB60F922F938F939F93AF93BF93EF930B
S1133330FF93E0915608F09157083097B9F0028056
S1133340F381E02D938182819817B1F09281858178
S1133350282F26952923A081B181A20FB11D2C917C
S11333609F5F892382832093CE000BC0E9ECF0E0B9
S113337080818F7D808305C0E9ECF0E080818F7DC2
S11333808083FF91EF91BF91AF919F918F912F9186
S11333900F900BBE0F900FBE0F901F9018951F92A9
S11333A00F920FB60F9211240BB60F922F933F93E7
S11333B04F935F936F937F938F939F93AF93BF9339
S11333C0CF93DF93EF93FF93A0915808B0915908DE
S11333D0109711F16091D6001496ED91FC91159718
S11333E0938182812581981B92238481981761F0AF
S11333F0838126952823C081D181C20FD11D688382
S11334008F5F9581892383831696ED91FC9117979D
S1133410309711F0CD011995FF91EF91DF91CF9184
S1133420BF91AF919F918F917F916F915F914F91D8
S11334303F912F910F900BBE0F900FBE0F901F90D6
S113344018951F920F920FB60F9211240BB60F927C
S11334502F938F939F93AF93BF93EF93FF93E09139
S11334605808F09159083097B9F00280F381E02DA3
S1133470938182819817B1F092818581282F2695B6
S11334802923A081B181A20FB11D2C919F5F8923B3
S113349082832093D6000BC0E1EDF0E080818F7D24
S11334A0808305C0E1EDF0E080818F7D8083FF9112
S11334B0EF91BF91AF919F918F912F910F900BBE80
S11334C00F900FBE0F901F9018951F920F920FB67A
S11334D00F9211240BB60F922F933F934F935F9348
S11334E06F937F938F939F93AF93BF93CF93DF9308
S11334F0EF93FF93A0915A08B0915B08109711F1D4
S1133500609136011496ED91FC9115979381828117
S11335102581981B92238481981761F083812695D5
S11335202823C081D181C20FD11D68838F5F95810B
S1133530892383831696ED91FC911797309711F0A8
S1133540CD011995FF91EF91DF91CF91BF91AF918B
S11335509F918F917F916F915F914F913F912F91A7
S11335600F900BBE0F900FBE0F901F9018951F92D7
S11335700F920FB60F9211240BB60F922F938F93C5
S11335809F93AF93BF93EF93FF93E0915A08F09109
S11335905B083097B9F00280F381E02D938182813A
S11335A09817B1F092818581282F26952923A0812F
S11335B0B181A20FB11D2C919F5F89238283209337
S11335C036010BC0E1E3F1E080818F7D808305C08B
S11335D0E1E3F1E080818F7D8083FF91EF91BF91E2
S11335E0AF919F918F912F910F900BBE0F900FBEB3
S11335F00F901F901895FC01411102C00E9482286F
S1133600842F90E09C012150310982239323892B3C
S113361011F00E948228413810F00E948228128200
S113362013824483440F415045837183608380E057
S113363090E00895EEE2FAE02CEE30E2318320834C
S11336402FEE30E2338322832AEF30E23583248362
S11336502EEF30E23783268324E031E2318720875E
S113366020E131E23387228725E131E2358724875F
S113367021E231E23787268721E031E2318B208B4A
S113368026E231E2338B228B23E331E2358B248B28
S1133690682FCF013CC108956530F1F4FA018081AF
S11336A08F7390E0982F88272181822B90931F029B
S11336B080931E028281F0E48F9FC0011124FA01DD
S11336C0238126952695822B90931D0280931C02BC
S11336D081E080935C080895643051F080E090E4C8
S11336E090931D0280931C0290931F0280931E02EC
S11336F008950F931F930CE41BE120E034E244EFA0
S113370050E060E087E20E94B22390935E088093C9
S11337105D0821E0892B09F020E0822F1F910F9191
S1133720089580915D0890915E08009759F040E0FB
S113373060E070E00E940324843031F410925C084D
S113374080E0089582E0089583E0089580915D0803
S113375090915E08009739F064E00E944F24853010
S113376021F083E0089582E0089580E00895609157
S11337701E0270911F0280E090E00E94112620E05A
S113378030E048EC52E40E947A2620E038EF4FE71C
S113379056E40C94A625089560911C0270911D02B4
S11337A080E090E00E94112620E030E045E253E4FE
S11337B00E947A2620E038EF4FE756E40E94A625BF
S11337C020E030E040E252E40C943F250895CF938A
S11337D0DF9390E0FC01EE0FFF1FE80FF91FEE0FDF
S11337E0FF1FE15AF74F238121110AC0EF01E09135
S11337F0360AF091370A6A8188819981199512C035
S1133800DC01AA0FBB1FED01C80FD91FCC0FDD1FB0
S1133810C15AD74FE091400AF091410A6A818881E8
S113382099811995DF91CF910895CF93DF9390E01B
S1133830FC01EE0FFF1FE80FF91FEE0FFF1FE15A07
S1133840F74F238121110AC0EF01E091400AF09162
S1133850410A6A8188819981199512C0DC01AA0FF5
S1133860BB1FED01C80FD91FCC0FDD1FC15AD74FA5
S1133870E091360AF091370A6A8188819981199515
S1133880DF91CF91089585ED94E00E94D3280F2E07
S1133890FEE2CF2EFAE0DF2EF02D04E0CFE5D8E0F3
S11338A010E08C81813069F0E8F0823039F5D6017E
S11338B01C96ED91FC911D976A81888199811995D7
S11338C01DC08D818F5F8A3010F48D8317C01D82D7
S11338D0D6011C96ED91FC911D976A81888199818E
S11338E019950CC08D81882331F0812F9EDF8D8145
S11338F081508D8303C00C83812F69DF1F5F26965F
S1133900143079F685E090E00E94F810C7CFCF928A
S1133910DF92EF92FF920F931F93CF93DF93062FC3
S11339200F2EFEE2EF2EFAE0FF2EF02DD7011896AF
S1133930ED91FC91199766E087E290E01995CFE547
S1133940D8E00F2EF8E2CF2ED12CF02DD982C882E8
S113395086E08A831B8214E01C8380E038DFD70171
S11339601896ED91FC91199767E087E290E019951C
S1133970DF82CE8287E0888719861A8781E027DF75
S1133980D7011896ED91FC91199765E083E390E0D7
S11339901995D7011896ED91FC91199761E084E38C
S11339A090E0199584E390E09D878C8785E08E876D
S11339B01F86188B82E00BDFD7011896ED91FC91DE
S11339C0199764E081E091E01995D7011896ED917B
S11339D0FC91199761E082E091E0199582E091E011
S11339E09B8B8A8B1C8B1D8A1E8B83E0F0DEE12C63
S11339F0F12C20E030E040EC50E06CEE74E083E425
S1133A009CE10E94380EDF91CF911F910F91FF909E
S1133A10EF90DF90CF9008950F931F93CF93DF9390
S1133A201F921F92CDB7DEB78C0119822DC0E09191
S1133A30DB08EC3250F481E08E0F8093DB08F0E079
S1133A40E55FF64F8A81808302C01092DB088A8189
S1133A508A30D1F44091DB0850E0FA01E75FF64F79
S1133A601082415051099E012F5F3F4F6BE079E076
S1133A708091DC089091DD080E94B50C8981811148
S1133A800E94EA061092DB08BE016E5F7F4FC801F8
S1133A903EDB882361F20F900F90DF91CF911F914D
S1133AA00F9108950F931F93CF93DF938C01EB0134
S1133AB08091DC089091DD080E94760CB80187E7BC
S1133AC098E00E94A128209779F0E7E7F8E00190B8
S1133AD00020E9F7319780E290E091838083BE0172
S1133AE087E798E00E949628E7E7F8E0DF010D9069
S1133AF00020E9F711978DE09AE011969C938E933C
S1133B0012961C9201900020E9F73197E757F8408C
S1133B10AE2F87E798E0AC016A2F8091DE08909180
S1133B20DF08A5DA81110FC028E235E04DE250E04C
S1133B3065E679E08091DC089091DD080E94F70C3D
S1133B4085E699E002C080E090E0DF91CF911F917B
S1133B500F910895AF92BF92CF92DF92EF92FF92AE
S1133B600F931F93CF93DF936C01FC01019000200E
S1133B70E9F731977F01E81AF90A08E717E0C0E08E
S1133B80D0E0F80160817181A701C6010E94A828D4
S1133B90892B49F4FE01EE0FFF1FEC0FFD1FE958BE
S1133BA0F84F808107C021960D5F1F4FC131D105A9
S1133BB041F780E1DF91CF911F910F91FF90EF903A
S1133BC0DF90CF90BF90AF9008956CDFC3CF08957E
S1133BD08091DC089091DD080C94760C08958F9206
S1133BE09F92AF92CF92EF920F93CF93C82F41E061
S1133BF060E070E088EC90E00E944A0C9093DD084D
S1133C008093DC080F2EFCE08F2EFDE19F2EF02D1B
S1133C106894AA24A6F86894CC24C6F8E12C00E0A1
S1133C2023E040E051EE60E070E08C2F5CD990938B
S1133C30DF088093DE08E091360AF091370A64E0E9
S1133C4087E091E01995CF910F91EF90CF90AF90CD
S1133C509F908F900895882349F0E091400AF09155
S1133C60410A64E088E091E019950895E091360AEC
S1133C70F091370A64E088E091E01995089560E0D6
S1133C8070E083E195E00EDFE5E6F9E001900020C5
S1133C90E9F73197E556F94081E0759708F080E03F
S1133CA00895CF93DF93EC0160E070E084E295E047
S1133CB0F9DEE5E6F9E001900020E9F7E657F9407E
S1133CC039F465E679E0CE010E94A12880E002C0C3
S1133CD0188281E0DF91CF910895FC0101900020CA
S1133CE0E9F79F01215131092817390729F4BC014B
S1133CF082E595E06ACF089589E00895FC0101907A
S1133D000020E9F79F01215131092817390729F4C7
S1133D10BC0181E695E059CF089589E00895FC013E
S1133D2001900020E9F79F01215231092817390732
S1133D3029F4BC0180E795E048CF089589E008950F
S1133D4060E070E08FEA95E040CF0895E82FF0E05E
S1133D50EE0FFF1FED58F84F6081718188EB95E0FD
S1133D6034DF811112C028E235E04DE250E065E60F
S1133D7079E08091DC089091DD080E94F70C88239B
S1133D8021F085E699E0E6CE089585E699E0E2CE55
S1133D900895CF93DF931F92CDB7DEB7DB01119661
S1133DA09C911197953108F087C0992381F160E0C7
S1133DB070E0272F30E0462F50E0FD01E40FF51F9F
S1133DC0928192959F709A3010F0995C01C0905D39
S1133DD0F901EA50F74F90832F5F3F4FFD01E40F45
S1133DE0F51F92819F70492F50E04A30510514F01D
S1133DF0995C01C0905DF901EA50F74F90837E5FB2
S1133E006F5F11969C911197691798F201C070E049
S1133E10E72FF0E0EA50F74F10824C91811103C074
S1133E2081EC95E002C083EC95E026EF38E03F9307
S1133E302F931F924F939F938F9387EC95E09F93BB
S1133E408F9388E399E09F938F930E94032960E006
S1133E5070E088E399E0B9DE0FB6F894DEBF0FBED8
S1133E60CDBF8E3051F587E08983BE016F5F7F4FF0
S1133E7085E699E03CD18093E008E981F0E0EB59D4
S1133E80F64FDF010D900020E9F71197AE1BBF0B31
S1133E90AA2381F0BB271197CD010AF401969595C9
S1133EA087958093E108AF014F5F5F4F64E182EE35
S1133EB098E049D18EE001C084E10F90DF91CF9169
S1133EC00895813019F067ED75E002C067E976E086
S1133ED08BED95E07ACE08952F923F924F925F92A8
S1133EE06F927F928F929F92AF92BF92CF92DF9206
S1133EF0EF92FF920F931F93CF93DF93CDB7DEB76B
S1133F00A0970FB6F894DEBF0FBECDBF60E276E097
S1133F108CE296E0C7DD1EDE8111A3C080E2E1E2FF
S1133F20F2E0DE01119601900D928A95E1F79E016F
S1133F302F5F3F4F6901E12CF12C0F2EF8E3AF2ED8
S1133F40F6E0BF2EF02D08E319E00F2EF1E54F2E19
S1133F50F6E05F2EF02D0F2EF8E68F2EF6E09F2E62
S1133F60F02D0F2EF2E86F2EF6E07F2EF02D3E2C72
S1133F702F2CFF92EF92BF92AF921F930F930E9448
S1133F80032960E070E0C8018DDDE4DD0F900F903F
S1133F900F900F900F900F90811163C032E03E1587
S1133FA0E8F4F60183818F9382818F9381818F93CB
S1133FB080818F93FF92EF925F924F921F930F93A2
S1133FC00E94032960E070E0C8016CDDC3DD0FB618
S1133FD0F894DEBF0FBECDBF811143C02F923F9234
S1133FE09F928F921F930F930E94032960E070E0C9
S1133FF0C80158DDAFDD0F900F900F900F900F9018
S11340000F9081112EC02F923F927F926F921F9337
S11340100F930E94032960E070E0C80143DD9ADD3C
S11340200F900F900F900F900F900F90811119C067
S11340303FEFE31AF30A84E0C80ED11C98E0E916B6
S1134040F10409F094CF60E070E08AE996E02ADD9B
S113405081DD811106C060E070E08BEA96E022DD2C
S113406079DDA0960FB6F894DEBF0FBECDBFDF9109
S1134070CF911F910F91FF90EF90DF90CF90BF9061
S1134080AF909F908F907F906F905F904F903F90F4
S11340902F900895EF92FF920F931F93CF93DF9386
S11340A0EC018B017A0181E00CDF81110DC0CE019E
S11340B025DE811109C0C80132DE811105C0C701A6
S11340C00CDE811101C03CDEDF91CF911F910F9175
S11340D0FF90EF90089590E0FC01EE0FFF1F8E0F0C
S11340E09F1FFC01E958F84F818192810895DC01FA
S11340F0009729F1FB012081FC0101900020E9F7E0
S11341003197E81BF90B822F90E0E817F907C8F004
S113411080E008C0880F382F330F330F830F80538C
S1134120890F2F5FFD01E20FF11D908130ED390FF2
S11341303A3010F49111EECFFB012083089580E012
S1134140089580E008950F931F93CF93DF93DC01CC
S1134150EA012097E1F1FA0101900020E9F7319793
S1134160E41BF50B329710F532C08D01040F151FB7
S113417030E0AE01420F531FFA019081913428F0D0
S11341809753592F5295507F03C0592F5295507F02
S11341902C0F3D1FF9019181913410F0975301C008
S11341A09053950FF80190838F5F01C080E0282F12
S11341B0220F482F50E0FE0101900020E9F73197CB
S11341C0EC1BFD0B4E175F0710F48613CECFDF9167
S11341D0CF911F910F910895FC0180810895FC01F6
S11341E0208181E090E002C0880F991F6A95E2F770
S11341F082230895FC01808186230895FC01608355
S11342000895FC0110820895FC01408121E030E012
S113421002C0220F331F6A95E2F7242B20830895EE
S1134220FC012081622B60830895FC01408121E020
S113423030E002C0220F331F6A95E2F7242720835F
S11342400895FC012081622760830895FC01908118
S113425021E030E002C0220F331F6A95E2F7209577
S1134260292320830895FC0190816095692360834C
S1134270089580919509860F8093950990919809E6
S1134280913079F028F09230A9F0933019F1089523
S11342906F3F09F048C01092950981E08093980916
S11342A00895663809F03FC01092940982E0809323
S11342B098090895E091940981E08E0F8093940900
S11342C0F0E0EE56F64F6083823069F583E0809328
S11342D0980908959091940921E0290F2093940955
S11342E0963009F581110EC0E2E9F9E0808190E091
S11342F0982F88272181820F911D90939A0980938A
S1134300990904C010929A09109299091092980977
S1134310E0919609F0919709309729F080919909D5
S113432090919A09199508958F929F92AF92CF9286
S1134330EF920F93CF93DF93EB010F2EF9E38F2EC0
S1134340F1E29F2EF02D6894AA24A4F86894CC245A
S1134350C4F8E12C00E023E040E855E260E070E0BE
S11343600E94731790939C0980939B09D09397099B
S1134370C0939609DF91CF910F91EF90CF90AF90BA
S11343809F908F900895CF93DF93CDB7DEB7299791
S11343900FB6F894DEBF0FBECDBF89E0E1E4F2E0D2
S11343A09E012F5F3F4FD90101900D928A95E1F74D
S11343B010929A091092990980919B0990919C09F5
S11343C0009739F0422F532F69E00E94371880E09C
S11343D001C082E029960FB6F894DEBF0FBECDBFB0
S11343E0DF91CF91089565360CF064E66C390CF4D6
S11343F06CE996EF6902B00111246854744F81117D
S113440005C07093290160932801089570932B01CE
S113441060932A010895EAE0F1E080818861808355
S11344208FE39CE9909327018093260160E080E06C
S1134430DADF60E081E0D7DFE0E2F1E08081826AE8
S11344408083E1E2F1E080818A6180830895E091D4
S1134450A509F091A609309709F0199508956450BB
S1134460623008F03BC02091A409223079F018F49E
S1134470213031F030C0233081F02430A1F02BC042
S113448022E02093A40961E00AC20895FA01808120
S11344908093A10982E0DBCF089524E02093A4094E
S11344A064E0FDC10895FA01818190E0982F882786
S11344B02081822B9093A00980939F09838190E0AF
S11344C0982F88272281822B90939E0980939D099F
S11344D081E0BDCF089580E0BACF08951092A40979
S11344E086E0B5CF08952091A7093091A809211538
S11344F0310541F0462FBC01C90185D1823021F03C
S113450080E0089587E0089585E008950F931F9350
S11345109093A6098093A5090FE212E220E034E209
S113452044EF50E060E089E21DD19093A8098093A4
S1134530A709892B11F080E001C088E01F910F9139
S11345400895CF93DF931F921F92CDB7DEB780EA11
S1134550898383E08A831092A40962E0CE010196E4
S1134560C2DF0F900F90DF91CF910895CF93DF9327
S11345701F92CDB7DEB784EB898383E08093A409CF
S113458061E0CE010196AFDF0F90DF91CF910895E6
S11345902F923F924F925F926F927F928F929F924F
S11345A0AF92BF92CF92DF92EF92FF920F931F933D
S11345B0CF93DF93C0919D09D0919E09CF3F2FEFF8
S11345C0D20741F060919F097091A0096F3FEFEF0E
S11345D07E0759F44FEF5FEF6FE77FE7FC014083FD
S11345E051836283738383E099C01C0180E090E06F
S11345F018D32B013C01BE0180E090E012D34B01A3
S11346005C018091A20990E0019624E6289FB00104
S1134610299F700D11248091A309803269F08033A1
S1134620A1F08031E1F40F2EC12CD12CF8ECEF2E47
S1134630F1E4FF2EF02D1BC00F2EC12CD12CF6ED72
S1134640EF2EF3E4FF2EF02D12C00F2EC12CF0E557
S1134650DF2EFAE1EF2EF6E4FF2EF02D08C00F2E28
S1134660C12CD12CF0E8EF2EFFE3FF2EF02D072E06
S1134670000C880B990BD7D2A70196013BD320E0FD
S113468030E04CEC53E462D26B017C0125E83BEE54
S113469041ED5FE3C501B4012DD39B01AC01C3011E
S11346A0B201EDD1A701960151D2162FD72FC82FF1
S11346B0092F2DE33AE047E15FE3C301B2011AD3C6
S11346C02B013C0126EF38E24CE55FE3C501B40160
S11346D011D39B01AC01C301B201D1D1A701960151
S11346E035D2C62ED72EE82EF92E262F372F482F57
S11346F0592F612F7D2F8C2F902FF8D2181624F06C
S11347001C2DDD2DCE2D0F2D412F5D2F6C2F702FE5
S1134710F101408351836283738380E0DF91CF9101
S11347201F910F91FF90EF90DF90CF90BF90AF90CB
S11347309F908F907F906F905F904F903F902F90BD
S113474008958091B70981110CC08CE08093B80062
S11347508FEF8093BB0084E08093BC0081E0809362
S1134760B7090895AF92BF92CF92DF92EF92FF9272
S11347700F931F93CF93DF93A82EB62E69017A016E
S113478084E090E09ED3EC01892B61F1A88281E062
S1134790B81212C0C701B60120EA36E841E050E081
S11347A033D3DA01C9014097A109B109B695A79598
S11347B097958795898311C0C701B60120E83AE12E
S11347C046E050E021D3DA01C9014097A109B109BB
S11347D0B695A7959795879589831B830A838C2F14
S11347E09D2F02C080E090E0DF91CF911F910F9147
S11347F0FF90EF90DF90CF90BF90AF90089580919D
S1134800BC0081700895FF920F931F93CF93DF93A1
S11348100097D1F14A30D0F5F42E8B01EC01EFDF93
S1134820811136C08091AA099091AB09C817D907A4
S113483041F087DF89818093B800D093AB09C0939E
S1134840AA0981E08F0D8093AC098881880F809339
S1134850AD09FF2089F0F801AEEAB9E04FEF4F0D42
S1134860642F70E0CB010196B801680F791F819124
S11348708D93E617F707D9F788EF8093200285EA2E
S11348808093BC0084E005C086E003C087E001C0DB
S113489082E0DF91CF911F910F91FF9008951F93B4
S11348A0CF93DF93009729F16B3028F5162FEC0195
S11348B0A6DF811122C08091AA099091AB09C81783
S11348C0D90741F03EDF89818093B800D093AB09CA
S11348D0C093AA091093AC098881880F81608093E2
S11348E0AD0988EF8093200285EA8093BC0085E0BF
S11348F005C086E003C087E001C082E0DF91CF916C
S11349001F9108951F920F920FB60F9211240BB6A8
S11349100F922F933F934F935F936F937F938F9354
S11349209F93AF93BF93EF93FF93E091B9008E2FC2
S113493090E0FC013897E135F10508F075C088274F
S1134940E458FF4F8F4F82C21092A909E091A90940
S11349508091AC09E81770F481E08E0F8093A90967
S1134960F0E0E355F64F80818093BB0085E88093A7
S1134970BC0072C084E98093BC008091AA09909124
S1134980AB09DC011296ED91FC911397309709F471
S113499063C020E040E050E064E019955DC0E09120
S11349A0A90981E08E0F8093A9098091BB00F0E0F2
S11349B0E355F64F80838091B900803411F410924E
S11349C0A9092091A90930E08091AC0990E00197F0
S11349D02817390724F485EC8093BC003DC085E892
S11349E08093BC0039C08091BB00E091A909F0E03C
S11349F0E355F64F808384E98093BC008091AA0933
S1134A009091AB09DC011296ED91FC9113973097CC
S1134A1019F12091AC094DEA59E065E019951CC0E3
S1134A2085EA8093BC0018C08091B900809320026D
S1134A3084E08093BC008091AA099091AB09DC01C9
S1134A401296ED91FC911397309731F020E040E0FD
S1134A5050E0609120021995FF91EF91BF91AF91C1
S1134A609F918F917F916F915F914F913F912F9182
S1134A700F900BBE0F900FBE0F901F9018955058BB
S1134A80BB27AA270ED021C112D130F017D120F0B4
S1134A9031F49F3F11F41EF407C10EF4E095E7FBD7
S1134AA0FDC0E92F0E94031778F3BA176207730752
S1134AB08407950720F079F4A6F50C9425170EF4D5
S1134AC0E0950B2EBA2FA02D0B01B90190010C011A
S1134AD0CA01A0011124FF27591B99F0593F50F432
S1134AE0503E68F11A16F040A22F232F342F44278A
S1134AF0585FF3CF469537952795A795F040539582
S1134B00C9F77EF41F16BA0B620B730B840BBAF051
S1134B109150A1F0FF0FBB1F661F771F881FC2F7BC
S1134B200EC0BA0F621F731F841F48F487957795D0
S1134B306795B795F7959E3F08F0B1CF9395880F89
S1134B4008F09927EE0F9795879508950DD0BDC06D
S1134B50B5D048F0ACD038F021F45F3F21F09EC0CE
S1134B6051110C942617A0C00E94031788F39923AF
S1134B70B9F35523A1F3951B550BBB27AA2762173D
S1134B807307840738F09F5F5F4F220F331F441F62
S1134B90AA1FA9F334D00E2E3AF0E0E831D0915098
S1134BA05040E695001CCAF72AD0FE2F28D0660F85
S1134BB0771F881FBB1F261737074807AB07B0E8C6
S1134BC009F0BB0B802DBF01FF2793585F4F32F0D4
S1134BD09E3F510570F062C00C9426175F3FE4F3CA
S1134BE0983ED4F3869577956795B795F7959F5F2B
S1134BF0C9F7880F911D9695879597F90895E1E077
S1134C00660F771F881FBB1F621773078407BA07D5
S1134C1020F0621B730B840BBA0BEE1F88F7E09530
S1134C200895E89409C097FB3EF49095809570959B
S1134C3061957F4F8F4F9F4F9923A9F0F92F96E9E4
S1134C40BB279395F695879577956795B795F11159
S1134C50F8CFFAF4BB0F11F460FF1BC06F5F7F4FF6
S1134C608F4F9F4F16C0882311F096E911C0772308
S1134C7021F09EE8872F762F05C0662371F096E811
S1134C80862F70E060E02AF09A95660F771F881FE0
S1134C90DAF7880F9695879597F9089597F99F679E
S1134CA080E870E060E008959FEF80EC08950024B0
S1134CB00A941616170618060906089500240A947D
S1134CC012161306140605060895092E0394000C03
S1134CD011F4882352F0BB0F40F4BF2B11F460FF92
S1134CE004C06F5F7F4F8F4F9F4F089569D008F4C2
S1134CF08FEF08950CD0E9CFDADF28F0DFDF18F06A
S1134D00952309F0CBCFD0CF11240C9426170E9401
S1134D10031790F3959FC1F3950F50E0551F629FC1
S1134D20F001729FBB27F00DB11D639FAA27F00D00
S1134D30B11DAA1F649F6627B00DA11D661F829F27
S1134D402227B00DA11D621F739FB00DA11D621F0C
S1134D50839FA00D611D221F749F3327A00D611D29
S1134D60231F849F600D211D822F762F6A2F11240B
S1134D709F57504092F0E9F088234AF0EE0FFF1F4E
S1134D80BB1F661F771F881F91505040A9F79E3F95
S1134D90510578F083CF0C9426175F3FE4F3983ED7
S1134DA0D4F3869577956795B795F795E7959F5FC3
S1134DB0C1F7FE2B880F911D9695879597F9089555
S1134DC0990F0008550FAA0BE0E8FEEF1616170618
S1134DD0E807F907C0F012161306E407F50798F080
S1134DE0621B730B840B950B39F40A2661F0232B99
S1134DF0242B252B21F408950A2609F4A140A69515
S1134E008FEF811D811D0895A1E21A2EAA1BBB1BE1
S1134E10FD010DC0AA1FBB1FEE1FFF1FA217B30782
S1134E20E407F50720F0A21BB30BE40BF50B661F98
S1134E30771F881F991F1A9469F76095709580955C
S1134E4090959B01AC01BD01CF010895EE0FFF1FAA
S1134E50881F8BBF0790F691E02D199409D0A59F68
S1134E60900DB49F900DA49F800D911D1124089561
S1134E70A29FB001B39FC001A39F700D811D112497
S1134E80911DB29F700D811D1124911D08950F93E2
S1134E901F93CF93DF93869F8001879F100D969F6A
S1134EA0100D1124C8010DD0EC01009721F0A801C8
S1134EB060E070E034D1CE01DF91CF911F910F916A
S1134EC008950F931F93CF93DF938230910510F4CD
S1134ED082E090E0E091460AF091470A20E030E059
S1134EE0A0E0B0E0309719F1408151810281138133
S1134EF048175907C8F08417950769F4109731F0DB
S1134F0012960C93129713961C9327C00093460A8B
S1134F101093470A22C02115310519F0421753078F
S1134F2018F49A01BD01EF01DF01F801DBCF21156F
S1134F303105F9F0281B390B2430310580F48A81BE
S1134F409B816115710521F0FB019383828304C069
S1134F509093470A8093460AFE01329644C0FE01AC
S1134F60E20FF31F819391932250310939832883EF
S1134F703AC02091440A3091450A232B41F42091F0
S1134F800202309103023093450A2093440A20918F
S1134F900002309101022115310541F42DB73EB7CD
S1134FA04091040250910502241B350BE091440A00
S1134FB0F091450AE217F307A0F42E1B3F0B2817C4
S1134FC0390778F0AC014E5F5F4F2417350748F07E
S1134FD04E0F5F1F5093450A4093440A8193919367
S1134FE002C0E0E0F0E0CF01DF91CF911F910F917B
S1134FF00895CF93DF93009709F481C0FC013297A1
S113500013821282A091460AB091470A109781F444
S113501020813181820F931F2091440A3091450AE7
S11350202817390751F5F093450AE093440A67C0FD
S1135030ED0120E030E0CE17DF0740F44A815B81C8
S11350409E0141155105F1F0EA01F5CFD383C283E6
S113505040815181840F951FC817D90759F488815D
S11350609981840F951F0296918380838A819B8105
S1135070938382832115310529F4F093470AE09341
S1135080460A3DC0E901FB83EA8349915991C40F63
S1135090D51FEC17FD0761F480819181840F951F62
S11350A00296E90199838883828193819B838A8311
S11350B0E0E0F0E012968D919C911397009719F01F
S11350C0FD01DC01F7CF8D919C9111979D012E5F1D
S11350D03F4F820F931F2091440A3091450A2817AD
S11350E0390769F4309729F41092470A1092460A56
S11350F002C013821282B093450AA093440ADF913E
S1135100CF91089581E090E0F89458C3FB01DC014D
S113511002C001900D9241505040D8F70895DC012F
S113512001C06D9341505040E0F70895FB01DC014C
S11351300D900020E9F7119701900D920020E1F7FE
S11351400895FB01DC0101900D920020E1F7089520
S1135150FB01DC014150504088F08D9181341CF0FA
S11351608B350CF4805E619161341CF06B350CF46A
S1135170605E861B611171F3990B0895881BFCCF47
S1135180CF93DF93CDB7DEB7AE014A5F5F4FFA012D
S113519061917191AF0180914A0A90914B0A61D05B
S11351A0DF91CF9108950F931F93CF93DF93E091F5
S11351B04A0AF0914B0A238121FF1BC08C01D0E0E5
S11351C0C0E0F80181918F0160914A0A70914B0A05
S11351D0DB011896ED91FC911997882331F019950C
S11351E0892B79F3DFEFCFEFECCF8AE01995892B88
S11351F019F08FEF9FEF02C08D2F9C2FDF91CF917D
S11352001F910F9108950F931F93CF93DF93CDB701
S1135210DEB72E970FB6F894DEBF0FBECDBF0E8952
S11352201F8986E08C831A8309838FEF9FE79E830F
S11352308D83AE01465E5F4F688D798DCE010196F8
S113524010D0EF81F885E00FF11F10822E960FB673
S1135250F894DEBF0FBECDBFDF91CF911F910F91A8
S113526008952F923F924F925F926F927F928F9206
S11352709F92AF92BF92CF92DF92EF92FF920F93E1
S11352801F93CF93DF93CDB7DEB72B970FB6F89468
S1135290DEBF0FBECDBF6C017B018A01FC0117820A
S11352A01682838181FFBFC1CE0101963C01F601C4
S11352B09381F70193FD859193FF81917F01882369
S11352C009F4ADC1853239F493FD859193FF819141
S11352D07F01853221F4B60190E0D6D1E8CF912C3C
S11352E0212C312CFFE1F315D8F08B3279F038F40E
S11352F0803279F08332A1F4232D20611DC08D32D8
S113530061F0803369F4232D216016C0832D8260FF
S1135310382EE32DE4603E2E2AC0F32DF8601DC024
S113532037FC2DC020ED280F2A3040F08E32B9F41E
S113533036FC75C1232D2064322E19C036FE06C0FA
S11353408AE0989E200D1124922E11C0EAE02E9E30
S1135350200D1124222EF32DF0623F2E08C08C362E
S113536021F4832D8068382E02C0883641F4F70179
S113537093FD859193FF81917F018111B3CF982F84
S11353809F7D9554933028F40C5F1F4F9FE39983BE
S11353900DC0833631F0833771F0833509F055C081
S11353A020C0F801808189830E5F1F4F8824839475
S11353B0912C530112C02801F2E04F0E511CF80148
S11353C0A080B18036FE03C0692D70E002C06FEF8B
S11353D07FEFC5014ED14C018201F32DFF773F2EA3
S11353E015C0280122E0420E511CF801A080B180B2
S11353F036FE03C0692D70E002C06FEF7FEFC50178
S11354002DD14C01F32DF0683F2E820133FC19C0DD
S1135410822D90E088169906A0F4B60180E290E00F
S113542033D12A94F5CFF50137FC859137FE81916C
S11354305F01B60190E028D121102A9421E0821A5C
S113544091088114910479F7E1C0843611F089360A
S113545039F5F80137FE07C060817181828193813B
S11354600C5F1F4F08C060817181072E000C880BF0
S1135470990B0E5F1F4FF32DFF763F2E97FF09C048
S113548090958095709561957F4F8F4F9F4FF068F1
S11354903F2E2AE030E0A30133D1882E861844C081
S11354A0853731F4232D2F7EB22E2AE030E025C03B
S11354B0932D997FB92E8F36C1F018F4883579F081
S11354C0AEC0803719F0883721F0A9C0E92FE06118
S11354D0BE2EB4FE0DC0FB2DF460BF2E09C034FEF9
S11354E00AC0292F2660B22E06C028E030E005C08D
S11354F020E130E002C020E132E0F801B7FE07C04D
S113550060817181828193810C5F1F4F06C060812D
S1135510718180E090E00E5F1F4FA301F1D0882ECF
S11355208618FB2DFF773F2E36FE0DC0232D2E7FD0
S1135530A22E891458F434FE0BC032FC09C0832D0A
S11355408E7EA82E05C0B82CA32C03C0B82C01C095
S1135550B92CA4FE0FC0FE01E80DF11D808180333B
S113556021F49A2D997EA92E09C0A2FE06C0B394F7
S1135570B39404C08A2D867809F0B394A3FC10C0B8
S1135580A0FE06C0B21480F4280C922C9B180DC007
S1135590B21458F4B60180E290E076D0B394F8CF18
S11355A0B21418F42B1802C0982C212CA4FE0FC09E
S11355B0B60180E390E068D0A2FE16C0A1FC03C04F
S11355C088E790E002C088E590E0B6010CC08A2D1F
S11355D0867851F0A1FE02C08BE201C080E2A7FCF4
S11355E08DE2B60190E050D0891430F4B60180E326
S11355F090E04AD09A94F8CF8A94F301E80DF11D13
S11356008081B60190E040D08110F6CF222009F4C9
S11356104ECEB60180E290E037D02A94F7CFF6015F
S11356208681978102C08FEF9FEF2B960FB6F89477
S1135630DEBF0FBECDBFDF91CF911F910F91FF90C1
S1135640EF90DF90CF90BF90AF909F908F907F901E
S11356506F905F904F903F902F900895FC010590BC
S1135660615070400110D8F7809590958E0F9F1F60
S11356700895FC016150704001900110D8F78095A5
S113568090958E0F9F1F08950F931F93CF93DF93D1
S1135690FB01238121FD03C08FEF9FEF2CC022FF6C
S11356A016C046815781248135814217530744F43B
S11356B0A081B1819D012F5F3F4F318320838C9363
S11356C0268137812F5F3F4F3783268314C08B0198
S11356D0EC01FB010084F185E02D1995892BE1F69D
S11356E0D80116968D919C911797019617969C93C5
S11356F08E931697CE01DF91CF911F910F9108954C
S1135700FA01AA27283051F1203181F1E8946F93EE
S11357106E7F6E5F7F4F8F4F9F4FAF4FB1E03ED094
S1135720B4E03CD0670F781F891F9A1FA11D680F32
S1135730791F8A1F911DA11D6A0F711D811D911D65
S1135740A11D20D009F468943F912AE0269F1124DA
S11357503019305D3193DEF6CF010895462F47703E
S1135760405D4193B3E00FD0C9F7F6CF462F4F7099
S1135770405D4A3318F0495D31FD4052419302D0F7
S1135780A9F7EACFB4E0A69597958795779567959D
S1135790BA95C9F700976105710508959B01AC019D
S11357A00A2E06945795479537952795BA95C9F7C4
S11357B0620F731F841F951FA01D0895F894FFCFD7
S11357C000004E0A20000000000300000000411702
S11357D02C170000C600CE00D60036010040004061
S11357E0F8A027BE33E034C1332042C43360E5AEB1
S11357F033A0F2B133E0FFB433200DB833601ABBE9
S113580033FF0186000000000079FF0179A0000049
S11358100000E6FF0179000000000086FF01870018
S11358200000000078FF01880000000000005465BB
S11358306D7065726174757265206D6561737572E2
S1135840656D656E7400434F32206D6561737572CA
S1135850656D656E74004C69676874206D6561736D
S11358607572656D656E74004C656400536572767F
S11358706F204D6F746F72004661696C65642074AB
S11358806F20696E697469616C697A652074656DED
S113589070657261747572652073656E736F7200E2
S11358A04661696C656420746F20696E697469610E
S11358B06C697A65206C696768742073656E736FB0
S11358C0723A2025640A004661696C656420746F2D
S11358D020656E61626C65206C696768742073650D
S11358E06E736F722025640A00434F322073656E15
S11358F0736F723A202564004661696C6564207494
S11359006F206665746368206C69676874206461DD
S113591074613A2025640A004C69676874207365D1
S11359206E736F72206E6F74207265616479004CBF
S11359307578206F766572666C6F77004661637464
S11359406F727952657374203E25733C0A00436F6D
S11359506E66696775726520746F204555383638F0
S1135960203E25733C0A0047657420485745554935
S11359703A202573203E25733C200A005365742089
S11359804465764555493A202573203E25733C0AE3
S1135990003031386363323566373234613835313B
S11359A03763626664373633646331313236363195
S11359B034006335336538663966313038303166E2
S11359C0633400536574204F544141204964656E2B
S11359D074697479206170704555493A2573206162
S11359E070704B45593A2573206465764555493A9C
S11359F02573203E25733C0A0053617665206D6152
S1135A0063203E25733C0A00536574204164617031
S1135A1074697665204461746120526174653A202A
S1135A204F4E203E25733C0A004A6F696E204E6536
S1135A3074776F726B2054726965734C6566743A3F
S1135A402564203E25733C0A0055706C6F61642008
S1135A504D657373616765203E25733C0A00746568
S1135A606D702D77616B65206572726F723A2025B7
S1135A70640A0054656D702D7265616420657272EC
S1135A806F723A2025640A0049444C4500546D72F3
S1135A90205376630048414C206C65642074617324
S1135AA06B207374617274656421210048414C5FFA
S1135AB04C454400737973207265736574006D619D
S1135AC063207061757365006D6163207265737521
S1135AD06D650073797320666163746F72795245E2
S1135AE0534554007379732067657420687765752E
S1135AF069006D6163206765742067776E62006D6D
S1135B00616320736574206C696E6B63686B202518
S1135B1064006D61632073657420646576657569DE
S1135B20006D616320736574206170706575690030
S1135B306D616320736574206170706B6579006DAD
S1135B40616320736574206E776B736B6579006D88
S1135B5061632073657420617070736B6579006D87
S1135B606163207365742064657661646472006D9A
S1135B7061632073617665006D6163206A6F696E8D
S1135B8000756E636E66006D616320747820257302
S1135B90202564202573006F6666006D61632073A1
S1135BA0657420616472006D6163206765742061AF
S1135BB06472006D616320736574206472202564CF
S1135BC0006D616320676574206472006D616320F9
S1135BD073657420727864656C6179312025640082
S1135BE03320383639353235303030006D6163203A
S1135BF073657420727832006D616320736574205C
S1135C00636820646379636C6520256420373939BF
S1135C10006D61632073657420636820667265712A
S1135C2020256420256C75006D61632073657420E4
S1135C30636820647272616E676520256420302079
S1135C4037006D6163207365742063682073746129
S1135C50747573202564206F6E006D616320736515
S1135C6074207077726964782031006D61632073E9
S1135C70657420726574782037006F746161006107
S1135C806270004B4559535F4E4F545F494E49541F
S1135C90004E4F5F465245455F43480053494C45CB
S1135CA04E540042555359004D41435F50415553A2
S1135CB045440044454E49454400414343455054FE
S1135CC0454400494E56414C49445F504152414D70
S1135CD0004E4F545F4A4F494E454400494E564189
S1135CE04C49445F444154415F4C454E0046524147
